{
  "transactions": [
    {
      "hash": "0x0916e62b78a286fdf326fc030a3984dd041918eb2c4d4ca76e6dc8cd978f9134",
      "transactionType": "CALL",
      "contractName": null,
      "contractAddress": "0xd71f654c7b9c15a54b2617262369fa219c15fe24",
      "function": "createEvent(string,string,string,uint256)",
      "arguments": [
        "Web3 Meetup Ecuador 2025",
        "Join us for an amazing Web3 community meetup in Ecuador!",
        "ipfs://QmTest123abc",
        "0"
      ],
      "transaction": {
        "from": "0x648a3e5510f55b4995fa5a22ccd62e2586acb901",
        "to": "0xd71f654c7b9c15a54b2617262369fa219c15fe24",
        "gas": "0x95470",
        "value": "0x0",
        "input": "0xde4cd842000000000000000000000000000000000000000000000000000000000000008000000000000000000000000000000000000000000000000000000000000000c000000000000000000000000000000000000000000000000000000000000001200000000000000000000000000000000000000000000000000000000000000000000000000000000000000000000000000000000000000000000000000000001857656233204d65657475702045637561646f722032303235000000000000000000000000000000000000000000000000000000000000000000000000000000384a6f696e20757320666f7220616e20616d617a696e67205765623320636f6d6d756e697479206d656574757020696e2045637561646f722100000000000000000000000000000000000000000000000000000000000000000000000000000013697066733a2f2f516d5465737431323361626300000000000000000000000000",
        "nonce": "0x24",
        "chainId": "0x14a34"
      },
      "additionalContracts": [],
      "isFixedGasLimit": false
    },
    {
      "hash": "0xfda3f081f3a013d3b00bd38204ea524ab105b7e54151fd7b7ac1eeb77f57fed1",
      "transactionType": "CALL",
      "contractName": null,
      "contractAddress": "0xd71f654c7b9c15a54b2617262369fa219c15fe24",
      "function": "createEvent(string,string,string,uint256)",
      "arguments": [
        "NFT Workshop",
        "Learn how to create and mint your own NFTs",
        "ipfs://QmTest456def",
        "50"
      ],
      "transaction": {
        "from": "0x648a3e5510f55b4995fa5a22ccd62e2586acb901",
        "to": "0xd71f654c7b9c15a54b2617262369fa219c15fe24",
        "gas": "0x90c28",
        "value": "0x0",
        "input": "0xde4cd842000000000000000000000000000000000000000000000000000000000000008000000000000000000000000000000000000000000000000000000000000000c000000000000000000000000000000000000000000000000000000000000001200000000000000000000000000000000000000000000000000000000000000032000000000000000000000000000000000000000000000000000000000000000c4e465420576f726b73686f700000000000000000000000000000000000000000000000000000000000000000000000000000000000000000000000000000002a4c6561726e20686f7720746f2063726561746520616e64206d696e7420796f7572206f776e204e465473000000000000000000000000000000000000000000000000000000000000000000000000000000000000000000000000000000000013697066733a2f2f516d5465737434353664656600000000000000000000000000",
        "nonce": "0x25",
        "chainId": "0x14a34"
      },
      "additionalContracts": [],
      "isFixedGasLimit": false
    },
    {
      "hash": "0x94c228de771e95732568342fc2197601870211c4d48879010e443974f49134b7",
      "transactionType": "CALL",
      "contractName": null,
      "contractAddress": "0xd71f654c7b9c15a54b2617262369fa219c15fe24",
      "function": "createEvent(string,string,string,uint256)",
      "arguments": [
        "DeFi Summit",
        "Explore the future of decentralized finance",
        "ipfs://QmTest789ghi",
        "100"
      ],
      "transaction": {
        "from": "0x648a3e5510f55b4995fa5a22ccd62e2586acb901",
        "to": "0xd71f654c7b9c15a54b2617262369fa219c15fe24",
        "gas": "0x90c28",
        "value": "0x0",
        "input": "0xde4cd842000000000000000000000000000000000000000000000000000000000000008000000000000000000000000000000000000000000000000000000000000000c000000000000000000000000000000000000000000000000000000000000001200000000000000000000000000000000000000000000000000000000000000064000000000000000000000000000000000000000000000000000000000000000b446546692053756d6d6974000000000000000000000000000000000000000000000000000000000000000000000000000000000000000000000000000000002b4578706c6f72652074686520667574757265206f6620646563656e7472616c697a65642066696e616e63650000000000000000000000000000000000000000000000000000000000000000000000000000000000000000000000000000000013697066733a2f2f516d5465737437383967686900000000000000000000000000",
        "nonce": "0x26",
        "chainId": "0x14a34"
      },
      "additionalContracts": [],
      "isFixedGasLimit": false
    }
  ],
  "receipts": [
    {
      "status": "0x1",
      "cumulativeGasUsed": "0x56f2a4",
      "logs": [
        {
          "address": "0xd71f654c7b9c15a54b2617262369fa219c15fe24",
          "topics": [
            "0x356bfa625091650a093fccb27bac2d3329e98c971046beb9b4bfafab2a076c58",
            "0xd5898e7d50c3969b7c277c57065fa3d32419158f190718033b2dee313e14ec89",
            "0x000000000000000000000000648a3e5510f55b4995fa5a22ccd62e2586acb901"
          ],
          "data": "0x00000000000000000000000000000000000000000000000000000000000000a000000000000000000000000000000000000000000000000000000000000000e0000000000000000000000000000000000000000000000000000000000000014000000000000000000000000000000000000000000000000000000000000000000000000000000000000000000000000000000000000000000000000068fa95d0000000000000000000000000000000000000000000000000000000000000001857656233204d65657475702045637561646f722032303235000000000000000000000000000000000000000000000000000000000000000000000000000000384a6f696e20757320666f7220616e20616d617a696e67205765623320636f6d6d756e697479206d656574757020696e2045637561646f722100000000000000000000000000000000000000000000000000000000000000000000000000000013697066733a2f2f516d5465737431323361626300000000000000000000000000",
          "blockHash": "0x8bbfe26bd9598917361fbf0086e7e7dc7b686fe607f3290d94ad0d0e70544199",
          "blockNumber": "0x1f39b78",
          "blockTimestamp": "0x68fa95d0",
          "transactionHash": "0x0916e62b78a286fdf326fc030a3984dd041918eb2c4d4ca76e6dc8cd978f9134",
          "transactionIndex": "0x1c",
          "logIndex": "0x77",
          "removed": false
        },
        {
          "address": "0xd71f654c7b9c15a54b2617262369fa219c15fe24",
          "topics": [
            "0xdb838df1fbb32d807bb1ec43afc8f81fb0c76964708c79e129a864b4417c84e3",
            "0xd5898e7d50c3969b7c277c57065fa3d32419158f190718033b2dee313e14ec89"
          ],
          "data": "0x0000000000000000000000000000000000000000000000000000000000000020000000000000000000000000000000000000000000000000000000000000008d7b226e616d65223a2257656233204d65657475702045637561646f722032303235222c226465736372697074696f6e223a224a6f696e20757320666f7220616e20616d617a696e67205765623320636f6d6d756e697479206d656574757020696e2045637561646f7221222c22696d616765555249223a22697066733a2f2f516d54657374313233616263227d00000000000000000000000000000000000000",
          "blockHash": "0x8bbfe26bd9598917361fbf0086e7e7dc7b686fe607f3290d94ad0d0e70544199",
          "blockNumber": "0x1f39b78",
          "blockTimestamp": "0x68fa95d0",
          "transactionHash": "0x0916e62b78a286fdf326fc030a3984dd041918eb2c4d4ca76e6dc8cd978f9134",
          "transactionIndex": "0x1c",
          "logIndex": "0x78",
          "removed": false
        }
      ],
      "logsBloom": "0x00000000000000000000000000000000040000000000000000000000000000000000000000004000000000000008000000000000000000000000000000000000000000000000000000400800040000000000000000000000000000000000000000000000200000400000000000000000000000000000000000000000000000000000000000000002000000000000000000000000000000000000000000000000000000000000010000000000000000000000000200000000000000000000000000000000000000000000000000000000000000000000000000000080000000000000000000400000000000000000004000000000000000004000000000000000",
      "type": "0x2",
      "transactionHash": "0x0916e62b78a286fdf326fc030a3984dd041918eb2c4d4ca76e6dc8cd978f9134",
      "transactionIndex": "0x1c",
      "blockHash": "0x8bbfe26bd9598917361fbf0086e7e7dc7b686fe607f3290d94ad0d0e70544199",
      "blockNumber": "0x1f39b78",
      "gasUsed": "0x6c130",
      "effectiveGasPrice": "0xf4279",
      "from": "0x648a3e5510f55b4995fa5a22ccd62e2586acb901",
      "to": "0xd71f654c7b9c15a54b2617262369fa219c15fe24",
      "contractAddress": null,
      "l1BaseFeeScalar": "0x44d",
      "l1BlobBaseFee": "0x1",
      "l1BlobBaseFeeScalar": "0xa118b",
      "l1Fee": "0x6a",
      "l1GasPrice": "0x9",
      "l1GasUsed": "0xab8"
    },
    {
      "status": "0x1",
      "cumulativeGasUsed": "0x5d2257",
      "logs": [
        {
          "address": "0xd71f654c7b9c15a54b2617262369fa219c15fe24",
          "topics": [
            "0x356bfa625091650a093fccb27bac2d3329e98c971046beb9b4bfafab2a076c58",
            "0x7782b36362f4de00c482a0e6aef2f5b333d8be1a1a16d6e7249f1691611686a1",
            "0x000000000000000000000000648a3e5510f55b4995fa5a22ccd62e2586acb901"
          ],
          "data": "0x00000000000000000000000000000000000000000000000000000000000000a000000000000000000000000000000000000000000000000000000000000000e0000000000000000000000000000000000000000000000000000000000000014000000000000000000000000000000000000000000000000000000000000000320000000000000000000000000000000000000000000000000000000068fa95d0000000000000000000000000000000000000000000000000000000000000000c4e465420576f726b73686f700000000000000000000000000000000000000000000000000000000000000000000000000000000000000000000000000000002a4c6561726e20686f7720746f2063726561746520616e64206d696e7420796f7572206f776e204e465473000000000000000000000000000000000000000000000000000000000000000000000000000000000000000000000000000000000013697066733a2f2f516d5465737434353664656600000000000000000000000000",
          "blockHash": "0x8bbfe26bd9598917361fbf0086e7e7dc7b686fe607f3290d94ad0d0e70544199",
          "blockNumber": "0x1f39b78",
          "blockTimestamp": "0x68fa95d0",
          "transactionHash": "0xfda3f081f3a013d3b00bd38204ea524ab105b7e54151fd7b7ac1eeb77f57fed1",
          "transactionIndex": "0x1d",
          "logIndex": "0x79",
          "removed": false
        },
        {
          "address": "0xd71f654c7b9c15a54b2617262369fa219c15fe24",
          "topics": [
            "0xdb838df1fbb32d807bb1ec43afc8f81fb0c76964708c79e129a864b4417c84e3",
            "0x7782b36362f4de00c482a0e6aef2f5b333d8be1a1a16d6e7249f1691611686a1"
          ],
          "data": "0x000000000000000000000000000000000000000000000000000000000000002000000000000000000000000000000000000000000000000000000000000000737b226e616d65223a224e465420576f726b73686f70222c226465736372697074696f6e223a224c6561726e20686f7720746f2063726561746520616e64206d696e7420796f7572206f776e204e465473222c22696d616765555249223a22697066733a2f2f516d54657374343536646566227d00000000000000000000000000",
          "blockHash": "0x8bbfe26bd9598917361fbf0086e7e7dc7b686fe607f3290d94ad0d0e70544199",
          "blockNumber": "0x1f39b78",
          "blockTimestamp": "0x68fa95d0",
          "transactionHash": "0xfda3f081f3a013d3b00bd38204ea524ab105b7e54151fd7b7ac1eeb77f57fed1",
          "transactionIndex": "0x1d",
          "logIndex": "0x7a",
          "removed": false
        }
      ],
      "logsBloom": "0x00000000000000000000000000000000040000000000000000000000000000000000000000004000000000000000000000000000000000000000000000000040000000000000000000400800040000000000000000000000000000000000000000000000200000400000000000000000000000000000000000000000000000000000000000000002800000000000000000000000000000000000000000000000000000000000010000000000000000000000000200000000000000000000000000000000000000000000000000000000000000000000000000000080008000000000000000000000000000000000000000000000000000004000000000000000",
      "type": "0x2",
      "transactionHash": "0xfda3f081f3a013d3b00bd38204ea524ab105b7e54151fd7b7ac1eeb77f57fed1",
      "transactionIndex": "0x1d",
      "blockHash": "0x8bbfe26bd9598917361fbf0086e7e7dc7b686fe607f3290d94ad0d0e70544199",
      "blockNumber": "0x1f39b78",
      "gasUsed": "0x62fb3",
      "effectiveGasPrice": "0xf4279",
      "from": "0x648a3e5510f55b4995fa5a22ccd62e2586acb901",
      "to": "0xd71f654c7b9c15a54b2617262369fa219c15fe24",
      "contractAddress": null,
      "l1BaseFeeScalar": "0x44d",
      "l1BlobBaseFee": "0x1",
      "l1BlobBaseFeeScalar": "0xa118b",
      "l1Fee": "0x6a",
      "l1GasPrice": "0x9",
      "l1GasUsed": "0xa68"
    },
    {
      "status": "0x1",
      "cumulativeGasUsed": "0x63520a",
      "logs": [
        {
          "address": "0xd71f654c7b9c15a54b2617262369fa219c15fe24",
          "topics": [
            "0x356bfa625091650a093fccb27bac2d3329e98c971046beb9b4bfafab2a076c58",
            "0x867cf283dc7ad889735fa11160eb5a32f5bd4a4b7be05627934a318b5ab3716a",
            "0x000000000000000000000000648a3e5510f55b4995fa5a22ccd62e2586acb901"
          ],
          "data": "0x00000000000000000000000000000000000000000000000000000000000000a000000000000000000000000000000000000000000000000000000000000000e0000000000000000000000000000000000000000000000000000000000000014000000000000000000000000000000000000000000000000000000000000000640000000000000000000000000000000000000000000000000000000068fa95d0000000000000000000000000000000000000000000000000000000000000000b446546692053756d6d6974000000000000000000000000000000000000000000000000000000000000000000000000000000000000000000000000000000002b4578706c6f72652074686520667574757265206f6620646563656e7472616c697a65642066696e616e63650000000000000000000000000000000000000000000000000000000000000000000000000000000000000000000000000000000013697066733a2f2f516d5465737437383967686900000000000000000000000000",
          "blockHash": "0x8bbfe26bd9598917361fbf0086e7e7dc7b686fe607f3290d94ad0d0e70544199",
          "blockNumber": "0x1f39b78",
          "blockTimestamp": "0x68fa95d0",
          "transactionHash": "0x94c228de771e95732568342fc2197601870211c4d48879010e443974f49134b7",
          "transactionIndex": "0x1e",
          "logIndex": "0x7b",
          "removed": false
        },
        {
          "address": "0xd71f654c7b9c15a54b2617262369fa219c15fe24",
          "topics": [
            "0xdb838df1fbb32d807bb1ec43afc8f81fb0c76964708c79e129a864b4417c84e3",
            "0x867cf283dc7ad889735fa11160eb5a32f5bd4a4b7be05627934a318b5ab3716a"
          ],
          "data": "0x000000000000000000000000000000000000000000000000000000000000002000000000000000000000000000000000000000000000000000000000000000737b226e616d65223a22446546692053756d6d6974222c226465736372697074696f6e223a224578706c6f72652074686520667574757265206f6620646563656e7472616c697a65642066696e616e6365222c22696d616765555249223a22697066733a2f2f516d54657374373839676869227d00000000000000000000000000",
          "blockHash": "0x8bbfe26bd9598917361fbf0086e7e7dc7b686fe607f3290d94ad0d0e70544199",
          "blockNumber": "0x1f39b78",
          "blockTimestamp": "0x68fa95d0",
          "transactionHash": "0x94c228de771e95732568342fc2197601870211c4d48879010e443974f49134b7",
          "transactionIndex": "0x1e",
          "logIndex": "0x7c",
          "removed": false
        }
      ],
      "logsBloom": "0x00000000000000000000000000000000040000000000000000000000000000000000000000004000000000000000000000000000000000000000000000000000000000000000000000400800040000000000000000000000000000000000000000000000200000400000000000000000000000000000000000000000000000000000004000000002000000000000000000000000000000000000000000000000000080000000010000000000000000000000000200000000000000000000000000000000000000080000000000000000000000000000000000000080000000000000000000000000000000000000000000000000000000004000000000000000",
      "type": "0x2",
      "transactionHash": "0x94c228de771e95732568342fc2197601870211c4d48879010e443974f49134b7",
      "transactionIndex": "0x1e",
      "blockHash": "0x8bbfe26bd9598917361fbf0086e7e7dc7b686fe607f3290d94ad0d0e70544199",
      "blockNumber": "0x1f39b78",
      "gasUsed": "0x62fb3",
      "effectiveGasPrice": "0xf4279",
      "from": "0x648a3e5510f55b4995fa5a22ccd62e2586acb901",
      "to": "0xd71f654c7b9c15a54b2617262369fa219c15fe24",
      "contractAddress": null,
      "l1BaseFeeScalar": "0x44d",
      "l1BlobBaseFee": "0x1",
      "l1BlobBaseFeeScalar": "0xa118b",
      "l1Fee": "0x6a",
      "l1GasPrice": "0x9",
      "l1GasUsed": "0xa5b"
    }
  ],
  "libraries": [],
  "pending": [],
  "returns": {},
  "timestamp": 1761252815430,
  "chain": 84532,
  "commit": "083bb61"
}